:100000000C945D000C9485000C9485000C94850084
:100010000C9485000C9485000C9485000C9485004C
:100020000C9485000C9485000C9485000C9485003C
:100030000C9485000C9485000C9485000C9485002C
:100040000C94BB030C9485000C942B040C940504B5
:100050000C9485000C9485000C9485000C9485000C
:100060000C9485000C94850000000008000201003B
:100070000003040700000000000000000000000072
:10008000250028002B0000000000240027002A0083
:10009000040404040404040402020202020203032E
:1000A0000303030301020408102040800102040836
:1000B0001020010204081020C20711241FBECFEF38
:1000C000D8E0DEBFCDBF21E0A6E2B1E001C01D92C5
:1000D000A53DB207E1F711E0A0E0B1E0E6E4F7E109
:1000E00002C005900D92A632B107D9F710E0CDE518
:1000F000D0E004C02197FE010E949509CC35D107BC
:10010000C9F70E945D040C94A10B0C94000090E0D0
:10011000FC01EC55FF4F249180579F4FFC018491C7
:10012000882399F090E0880F991FFC01EA57FF4F50
:10013000A591B491FC01E458FF4F859194918FB73C
:10014000F894EC91E22BEC938FBF089590E0FC01C2
:10015000E859FF4F2491FC01EC55FF4F3491FC010D
:10016000E057FF4FE491EE23C9F0222339F023300A
:1001700001F1A8F4213019F1223029F1F0E0EE0F5D
:10018000FF1FE458FF4FA591B4918FB7F894EC91FD
:10019000611126C030953E233C938FBF08952730D0
:1001A000A9F02830C9F0243049F7809180008F7D74
:1001B00003C0809180008F7780938000DFCF84B56B
:1001C0008F7784BDDBCF84B58F7DFBCF8091B0006E
:1001D0008F778093B000D2CF8091B0008F7DF9CF20
:1001E0003E2BDACF3FB7F8948091280190912901F6
:1001F000A0912A01B0912B0126B5A89B05C02F3FE5
:1002000019F00196A11DB11D3FBFBA2FA92F982F3C
:100210008827BC01CD01620F711D811D911D42E037
:10022000660F771F881F991F4A95D1F70895AF92DF
:10023000BF92CF92DF92EF92FF920F931F93CF93D3
:10024000DF936C017B018B01040F151FEB015E0135
:10025000AE18BF08C017D10759F06991D601ED91CA
:10026000FC910190F081E02DC6010995892B79F769
:10027000C501DF91CF911F910F91FF90EF90DF901B
:10028000CF90BF90AF900895FC01538D448D252FE2
:1002900030E0842F90E0821B930B541710F0CF9620
:1002A000089501970895FC01918D828D981761F052
:1002B000A28DAE0FBF2FB11D5D968C91928D9F5F69
:1002C0009F73928F90E008958FEF9FEF08952FB75F
:1002D000F89480912C0190912D01A0912E01B09164
:1002E0002F012FBF8093380190933901A0933A01D9
:1002F000B0933B0180E391E00E94530197FF26C039
:100300002FB7F89480912C0190912D01A0912E018E
:10031000B0912F012FBF4091380150913901609168
:100320003A0170913B01841B950BA60BB70B4091D2
:100330003401509135016091360170913701841775
:100340009507A607B707B0F28FEF9FEF0895FC015E
:10035000918D828D981731F0828DE80FF11D858D7A
:1003600090E008958FEF9FEF0895FC01918D228D0D
:10037000892F90E0805C9F4F821B91098F73992792
:10038000089580E391E00E94B50121E0892B09F4F2
:1003900020E0822F089580E090E0892B29F00E94D0
:1003A000C10181110C9400000895FC01A48DA80FD7
:1003B000B92FB11DA35ABF4F2C91848D90E00196A7
:1003C0008F739927848FA689B7892C93A089B189C7
:1003D0008C91837080648C93938D848D981306C068
:1003E0000288F389E02D80818F7D80830895EF92CC
:1003F000FF920F931F93CF93DF93EC0181E0888FDF
:100400009B8D8C8D98131AC0E889F989808185FFAE
:1004100015C09FB7F894EE89FF896083E889F98950
:1004200080818370806480839FBF81E090E0DF9152
:10043000CF911F910F91FF90EF900895F62E0B8DA5
:1004400010E00F5F1F4F0F731127E02E8C8D8E1160
:100450000CC00FB607FCFACFE889F989808185FFC7
:10046000F5CFCE010E94D501F1CFEB8DEC0FFD2F22
:10047000F11DE35AFF4FF0829FB7F8940B8FEA8982
:10048000FB8980818062CFCFCF93DF93EC01888D91
:100490008823B9F0AA89BB89E889F9898C9185FDFF
:1004A00003C0808186FD0DC00FB607FCF7CF8C918D
:1004B00085FFF2CF808185FFEDCFCE010E94D5016F
:1004C000E9CFDF91CF910895CF93DF93FC010190A5
:1004D0000020E9F73197AF01481B590BBC0180E3BD
:1004E00091E00E941701EC0142E050E068E171E008
:1004F00080E391E00E9417018C0F9D1FDF91CF9147
:100500000895FC0180819181009711F00C94370AC5
:100510000895CF93DF93FC0124813581421753075F
:1005200088F4C081D181062E000C770BCE01840F98
:10053000951F0E94860B009729F08C1B9D0BDF9165
:10054000CF9108958FEF9FEFFACF0F931F93CF9323
:10055000DF93EC0188819981009759F02A813B81D2
:100560002617370730F081E0DF91CF911F910F916F
:1005700008958B016F5F7F4F0E94C00A009759F06A
:10058000998388831B830A832C813D81232B59F710
:10059000FC011082E8CF80E0E7CFEF92FF920F934B
:1005A0001F93CF93DF93EC017B018A01BA010E9474
:1005B000A50228813981811114C02115310519F056
:1005C000C9010E94370A198218821D821C821B826F
:1005D0001A82CE01DF91CF911F910F91FF90EF9082
:1005E00008951D830C83B701C9010E949A0BF1CFB6
:1005F000AF92BF92CF92DF92EF92FF920F931F9331
:10060000CF93DF93EC016B015A0179012417350771
:1006100020F48B2D5901E42EF82E198218821B82AA
:100620001A821D821C8250E040E06AE171E0CE0136
:100630000E94CD02D60114960D911C91A016B10610
:1006400028F5E016F10608F48701D601ED91FC913A
:100650001197E00FF11FF08010826D917C916A0D6F
:100660007B1D61157105F1F0FB0101900020E9F798
:100670003197AF01461B570BCE010E94CD02F60108
:1006800080819181080F191FD801FC92CE01DF9162
:10069000CF911F910F91FF90EF90DF90CF90BF907F
:1006A000AF90089588819981009711F00E94370AD0
:1006B000198218821D821C821B821A82E0CFFB01E4
:1006C000DC0111961C921E9213961C921E92129798
:1006D00015961C921E9214978617970749F0608111
:1006E00071816115710521F0448155810C94CD0211
:1006F0000895CF93DF93EB016BE171E0FC01808102
:1007000091810E94E30810922601009719F16DE192
:1007100071E00E94910B21E0892B09F020E02883F1
:100720006BE171E090E080E00E94E308009791F0B7
:1007300050E040E070E060E00E94EF0769837A8358
:100740008B839C836BE171E090E080E00E94E30882
:10075000009731F481E080932601DF91CF910895D5
:1007600050E040E070E060E00E94EF0769877A8720
:100770008B879C87F2CF1F920F920FB60F92112496
:100780002F933F938F939F93AF93BF9380912C01AF
:1007900090912D01A0912E01B0912F013091270150
:1007A00023E0230F2D3758F50196A11DB11D20938D
:1007B000270180932C0190932D01A0932E01B093DB
:1007C0002F018091280190912901A0912A01B091D7
:1007D0002B010196A11DB11D809328019093290141
:1007E000A0932A01B0932B01BF91AF919F918F915C
:1007F0003F912F910F900FBE0F901F90189526E8F4
:10080000230F0296A11DB11DD2CF1F920F920FB6DA
:100810000F9211242F933F934F935F936F937F9386
:100820008F939F93AF93BF93EF93FF9380E391E0F8
:100830000E94D501FF91EF91BF91AF919F918F9150
:100840007F916F915F914F913F912F910F900FBECC
:100850000F901F9018951F920F920FB60F921124B0
:100860002F938F939F93EF93FF93E0914001F0912B
:1008700041018081E0914601F091470182FD1BC05A
:100880009081809149018F5F8F7320914A01821777
:1008900041F0E0914901F0E0E05DFE4F958F8093DB
:1008A0004901FF91EF919F918F912F910F900FBE72
:1008B0000F901F9018958081F4CFCF93DF93CDB721
:1008C000DEB7C257D1090FB6F894DEBF0FBECDBF59
:1008D000789484B5826084BD84B5816084BD85B51B
:1008E000826085BD85B5816085BD80916E00816027
:1008F00080936E00109281008091810082608093CD
:1009000081008091810081608093810080918000CE
:100910008160809380008091B10084608093B100F9
:100920008091B00081608093B00080917A008460F3
:1009300080937A0080917A00826080937A0080911F
:100940007A00816080937A0080917A008068809339
:100950007A001092C1008AE00E94870089E00E941C
:10096000870088E00E94870087E00E94870086E079
:100970000E94870085E00E94870084E00E94870033
:1009800083E00E948700E0914001F091410182E004
:100990008083E0913C01F0913D011082E0913E01A5
:1009A000F0913F018FEC808310924801E091440167
:1009B000F091450186E08083E0914201F09143018E
:1009C000808180618083E0914201F09143018081C8
:1009D00088608083E0914201F091430180818068CA
:1009E0008083E0914201F091430180818F7D80837B
:1009F00082E291E00E94640280E391E00E94B501EE
:100A0000181619060CF0AEC2AF961FAE1EAEAF9709
:100A1000E1961FAE1EAEE197E3961FAE1EAEE397C2
:100A200050E040E06AE171E0CE0183599F4F0E949F
:100A3000CD020E94670197FD27C08A30910521F100
:100A400089831A82E3960EAD1FADE3970F5F1F4FA8
:100A5000B801CE0183599F4F0E94A502882349F314
:100A6000AF962EAD3FADAF97E3968EAD9FADE397BA
:100A7000BE016F5F7F4F820F931F0E949A0BE39618
:100A80001FAF0EAFE397D5CF29961FAE29971CAEA7
:100A90001DAE1EAE1FAE1EAA1AA61BA61CA61DA624
:100AA0001CA2188E198E1A8E1B8E1A8A1E821F8205
:100AB00018861986BE0163597F4FCE0189599F4F11
:100AC0000E945F0350E040E06BE7CE0189599F4FE1
:100AD0000E9489026C01AC016DE7CE0189599F4FDC
:100AE0000E9489024C01AC014F5F5F4F6BE7CE0162
:100AF00089599F4F0E9489027C01AC016DE7CE01AC
:100B000089599F4F0E9489025C01AC014F5F5F4F82
:100B10006BE7CE0189599F4F0E9489028C01AC017D
:100B20006DE7CE0189599F4F0E9489023C01AC01BB
:100B30004F5F5F4F6BE7CE0189599F4F0E9489023B
:100B40002C01AC016DE7CE0189599F4F0E948902AB
:100B50001C01A6014F5F5F4F9401BE0169597F4F91
:100B6000CE018F599F4F0E94F802A7014F5F5F4F40
:100B70009501BE0169597F4FCE01855A9F4F0E9452
:100B8000F802A8014F5F5F4F9301BE0169597F4F83
:100B9000CE018B5A9F4F0E94F802A2014F5F5F4F18
:100BA0009101BE0169597F4FCE01815B9F4F0E9429
:100BB000F802BE016F597F4FCE01875B9F4F0E94A5
:100BC0005F03BE01695C7F4FCE01875B9F4F0E9430
:100BD0007903CE01875B9F4F0E948102BE01655A57
:100BE0007F4FCE01875B9F4F0E945F03BE016B5D0D
:100BF0007F4FCE01875B9F4F0E947903CE01875BB9
:100C00009F4F0E948102BE016B5A7F4FCE01875BCE
:100C10009F4F0E945F03BE016D5E7F4FCE01875BD9
:100C20009F4F0E947903CE01875B9F4F0E948102F4
:100C3000BE01615B7F4FCE01875B9F4F0E945F03C8
:100C4000BE016F5F7F4FCE01875B9F4F0E9479038C
:100C5000CE01875B9F4F0E948102CE01815B9F4F37
:100C60000E948102CE018B5A9F4F0E948102CE01C9
:100C7000855A9F4F0E948102CE018F599F4F0E943B
:100C80008102CE0189599F4F0E94810280912601E5
:100C9000811175C148AC59AC6AAC7BAC8EA19FA1E7
:100CA000A8A5B9A5840D951DA61DB71D4C895D8904
:100CB0006E897F89840F951FA61FB71F4A815B81AC
:100CC0006C817D812C013D01440E551E661E771EF0
:100CD0006FA989E00E94A6006DA187E00E94A6008E
:100CE0006B8985E00E94A600698183E00E94A600CE
:100CF0000E94F20028966CAF7DAF8EAF9FAF289711
:100D00006AAB7BAB8CAB9DAB68A379A38AA39BA397
:100D10006E877F87888B998BC12CD12C760111E04F
:100D2000C414D504E604F70408F003C10E94F200DD
:100D30004B015C0128968CAD9DADAEADBFAD289743
:100D4000B501A401481B590B6A0B7B0B24968CAD93
:100D50009DADAEADBFAD249784179507A607B70725
:100D600088F54CAD5DAD6EAD7FAD88AD99ADAAADEA
:100D7000BBAD84179507A607B70720F129966FAD7D
:100D8000299761278AE00E94A60028968CAE9DAE26
:100D9000AEAEBFAE289729968FAD299781272996A9
:100DA0008FAF29978CAD9DADAEADBFAD0196A11DA6
:100DB000B11D8CAF9DAFAEAFBFAF8FEFC81AD80AD1
:100DC000E80AF80A8AA99BA9ACA9BDA9B501A401A2
:100DD000481B590B6A0B7B0B8EA59FA5A8A9B9A927
:100DE00084179507A607B70748F54AA55BA56CA524
:100DF0007DA58EA19FA1A8A5B9A584179507A607D3
:100E0000B707E0F06EA9612788E00E94A6008AAAD1
:100E10009BAAACAABDAA8EA981278EAB8AA59BA549
:100E2000ACA5BDA50196A11DB11D8AA79BA7ACA726
:100E3000BDA78FEFC81AD80AE80AF80A88A199A1B5
:100E4000AAA1BBA1B501A401481B590B6A0B7B0BDE
:100E50008C8D9D8DAE8DBF8D84179507A607B70726
:100E600048F5488D598D6A8D7B8D8C899D89AE8919
:100E7000BF8984179507A607B707E0F06CA1612723
:100E800086E00E94A60088A299A2AAA2BBA28CA179
:100E900081278CA3888D998DAA8DBB8D0196A11D6C
:100EA000B11D888F998FAA8FBB8F8FEFC81AD80A70
:100EB000E80AF80A8E859F85A889B989B501A40139
:100EC000481B590B6A0B7B0B8A859B85AC85BD85BE
:100ED00084179507A607B70708F022CF4E815F81D8
:100EE000688579858A819B81AC81BD81841795074E
:100EF000A607B70708F414CF6A89612784E00E9427
:100F0000A6008E869F86A88AB98A8A8981278A8BBD
:100F10008E819F81A885B9850196A11DB11D8E8303
:100F20009F83A887B9878FEFC81AD80AE80AF80AFA
:100F3000F7CE60E08AE00E94A60060E088E00E94B0
:100F4000A60060E086E00E94A60060E084E00E94C7
:100F5000A60082E291E00E946402CE0183599F4F75
:100F60000E94810280E090E0892B09F445CD0E9427
:100F7000C101882309F440CD0E9400003DCD84E2E8
:100F800091E0E9CFE0E3F1E01382128288EE93E092
:100F9000A0E0B0E084839583A683B7838AE091E0E4
:100FA0009183808385EC90E09587848784EC90E042
:100FB0009787868780EC90E0918B808B81EC90E026
:100FC000938B828B82EC90E0958B848B86EC90E007
:100FD000978B868B118E128E138E148E0895B0E02F
:100FE000A0E0E5EFF7E00C9450095C016B017A0199
:100FF0006115710519F0FB0191838083E114F104FF
:1010000049F0C7010297839728F060E070E0CB01B8
:101010009CC05E01E5012196F5011081812F90E0D1
:101020000E94DA08892BA9F71D3209F056C02196D3
:10103000F501118101E0E114F10409F4AEC0F0E121
:10104000EF16F10409F08EC0103341F488818F7DD2
:10105000883509F083C0198122960260E0E1EE2E06
:10106000F12C88248A94982CA82CFFE0BF2E20E035
:1010700060E070E0CB0127010F2C000C66087708B8
:10108000FE0150ED352E310E39E0331538F43FEBCB
:10109000310F3A31A0F549EC342E310E3E141F04C5
:1010A000BCF52F3FB9F086169706A806B90670F171
:1010B000A30192010E941209232D30E050E040E08C
:1010C000620F731F841F951F6217730784079507AC
:1010D000E8F021E021961081D3CF1B3221F4E50105
:1010E0002296F501118100E0A6CF78E0E72EF12CE1
:1010F00088248A94982CA82C6FE1B62EB8CF3FE9AB
:10110000310F3A3128F439EA332EC7CF2FEFE2CF2F
:10111000C114D10431F02223E9F02197F601D183E3
:10112000C08300FF07C090958095709561957F4FB3
:101130008F4F9F4F2F3F49F482E290E09093D00170
:101140008093CF016FEF7FEFCB01CDB7DEB7E1E149
:101150000C946C0901FFE5CF2297E0CF10E3E11476
:10116000F10419F23AE0E316F104E9F080E1E8163F
:10117000F10409F473CFE8E0EE16F10409F4B8CFF6
:101180006FEF7FEFCB0197010F2C000C440B550B39
:101190000E94220949015A016ACF103309F456CF3F
:1011A0009AE0E92EF12C89E9882E982CA82C89E167
:1011B000B82E5DCF91110C940F09803219F089502F
:1011C0008550C8F708954DEC51E00E94E808089555
:1011D000FA01A191B081009719F41097E1F0CD01C7
:1011E000DC01CD010D90002011F4C00113C0FB0102
:1011F0002191222319F02015D9F7F3CFFB0121917A
:10120000201519F41E92119606C02223C1F70D90E5
:101210000020A1F7D001FA01A193B0830895992786
:1012200088270895DB018F939F930E944409BF9103
:10123000AF91A29F800D911DA39F900DB29F900D25
:1012400011240895A1E21A2EAA1BBB1BFD010DC09B
:10125000AA1FBB1FEE1FFF1FA217B307E407F50766
:1012600020F0A21BB30BE40BF50B661F771F881F42
:10127000991F1A9469F760957095809590959B01D8
:10128000AC01BD01CF0108950E948609A59F900D74
:10129000B49F900DA49F800D911D112408952F924D
:1012A0003F924F925F926F927F928F929F92AF92F6
:1012B000BF92CF92DF92EF92FF920F931F93CF9343
:1012C000DF93CDB7DEB7CA1BDB0B0FB6F894DEBFDA
:1012D0000FBECDBF09942A88398848885F846E8400
:1012E0007D848C849B84AA84B984C884DF80EE804A
:1012F000FD800C811B81AA81B981CE0FD11D0FB653
:10130000F894DEBF0FBECDBFED010895A29FB001DE
:10131000B39FC001A39F700D811D1124911DB29F29
:10132000700D811D1124911D0895EE0FFF1F059072
:10133000F491E02D09940F931F93CF93DF938230A4
:10134000910510F482E090E0E091D301F091D40196
:1013500030E020E0B0E0A0E0309799F421153105AD
:1013600009F44AC0281B390B24303105D8F58A818D
:101370009B816115710589F1FB0193838283FE01D5
:1013800011C0408151810281138148175907E0F053
:101390004817590799F4109761F012960C93129719
:1013A00013961C933296CF01DF91CF911F910F912D
:1013B00008950093D3011093D401F4CF2115310582
:1013C00051F04217530738F0A901DB019A01BD0122
:1013D000DF01F801C1CFEF01F9CF9093D4018093E1
:1013E000D301CDCFFE01E20FF31F819391932250E1
:1013F000310939832883D7CF2091D1013091D2018F
:10140000232B41F420910201309103013093D2014A
:101410002093D10120910001309101012115310566
:1014200041F42DB73EB74091040150910501241BB2
:10143000350BE091D101F091D201E217F307A0F44E
:101440002E1B3F0B2817390778F0AC014E5F5F4F1A
:101450002417350748F04E0F5F1F5093D201409379
:10146000D101819391939FCFF0E0E0E09CCFCF93A7
:10147000DF930097E9F0FC01329713821282A0916A
:10148000D301B091D401ED0130E020E01097A1F438
:1014900020813181820F931F2091D1013091D2019F
:1014A0002817390709F061C0F093D201E093D10108
:1014B000DF91CF910895EA01CE17DF07E8F54A8161
:1014C0005B819E0141155105B1F7E901FB83EA8378
:1014D00049915991C40FD51FEC17FD0761F4808124
:1014E00091810296840F951FE901998388838281F7
:1014F00093819B838A83F0E0E0E012968D919C912A
:1015000013970097B9F52D913C911197CD01029653
:10151000820F931F2091D1013091D20128173907F2
:1015200039F6309751F51092D4011092D301B0934F
:10153000D201A093D101BCCFD383C283408151811A
:10154000840F951FC817D90761F44E5F5F4F8881DC
:101550009981480F591F518340838A819B819383CE
:1015600082832115310509F0B0CFF093D401E093C7
:10157000D3019ECFFD01DC01C0CF13821282D7CFF1
:10158000B0E0A0E0E6ECFAE00C9451098C01009781
:1015900051F4CB010E949B098C01C801CDB7DEB785
:1015A000E0E10C946D09FC01E60FF71F9C0122504D
:1015B0003109E217F30708F49DC0D901CD91DC9100
:1015C0001197C617D70798F0C530D10530F3CE0173
:1015D00004978617970708F3C61BD70B2297C1936A
:1015E000D1936D937C93CF010E94370AD6CF5B01D4
:1015F000AC1ABD0A4C018C0E9D1EA091D301B09176
:10160000D401512C412CF12CE12C109731F5809113
:10161000D1019091D2018815990509F05CC0461658
:10162000570608F058C08091000190910101009781
:1016300041F48DB79EB74091040150910501841B80
:10164000950BE817F90708F055C0F093D201E09325
:10165000D101F90171836083A0CF8D919C91119785
:1016600012966C90129713967C901397A815B90553
:1016700059F56C0142E0C40ED11CCA14DB0420F100
:10168000AC014A195B09DA011296159780F0628263
:10169000738251834083D9016D937C93E114F104EB
:1016A00071F0D7011396FC93EE93129776CF2296A2
:1016B0008C0F9D1FF90191838083F301EFCFF0938D
:1016C000D401E093D30169CF4816590608F42C01E0
:1016D0007D01D3019ACFCB010E949B097C01009729
:1016E00049F0AE01B8010E947D0BC8010E94370A83
:1016F000870153CF10E000E050CFFB01DC0102C0B6
:1017000001900D9241505040D8F70895FC0181910D
:10171000861721F08823D9F7992708953197CF01AB
:101720000895FB01DC018D91019080190110D9F31E
:10173000990B0895FB01DC0101900D920020E1F767
:061740000895F894FFCFAC
:101746000000D501800000000000F70117014401E8
:101756004402B5015301A7010D0A002C00747275ED
:0617660065007200660040
:00000001FF
